:020000040800F2
:10000000B0040020ED010008AD1E00081516000820
:10001000A91E0008F9020008814400080000000041
:10002000000000000000000000000000BD3E0008CD
:10003000FD02000800000000B11E0008C13E0008DB
:10004000070200080702000807020008070200086C
:10005000070200080702000807020008070200085C
:10006000070200080702000807020008070200084C
:10007000070200080702000807020008070200083C
:10008000070200080000000007020008070200083D
:10009000070200080702000807020008070200081C
:1000A000070200080702000807020008070200080C
:1000B00007020008070200080702000807020008FC
:1000C00007020008070200080702000807020008EC
:1000D00007020008070200080702000807020008DC
:1000E00007020008070200080702000807020008CC
:1000F00007020008070200080702000800000000CD
:1001000000000000070200080000000007020008CD
:1001100007020008000000000702000807020008AC
:10012000070200080702000807020008070200088B
:10013000070200080000000000000000070200089D
:10014000070200080702000800000000000000008D
:10015000000000000000000000000000000000009F
:10016000000000000000000000000000070200087E
:10017000070200080000000000000000000000006E
:10018000000000000702000800000000000000005E
:10019000000000000000000000000000000000005F
:1001A000000000000000000007020008070200082D
:1001B000070200080702000807020008000000000C
:1001C000000000000702000800000000000000001E
:1001D0000702000807020008DFF80CD000F07AF8E8
:1001E00000480047A5440008B004002006488047A6
:1001F00006480047FEE7FEE7FEE7FEE7FEE7FEE70C
:10020000FEE7FEE7FEE7FEE7C53E0008D90100086D
:100210002DE9F05F0546002092469B46884606463B
:10022000814640241BE0284641464746224600F0CE
:1002300041F853465A46C01A914110D31146184608
:10024000224600F028F82D1A67EB01084F46224697
:100250000120002100F01FF817EB00094E41201E7D
:10026000A4F10104DFDC484631462A464346BDE896
:10027000F09FD2B201E000F8012B491EFBD270477B
:100280000022F6E710B513460A4604461946FFF762
:10029000F0FF204610BD202A04DB203A00FA02F1CC
:1002A000002070479140C2F1200320FA03F3194364
:1002B00090407047202A04DB203A21FA02F0002106
:1002C000704721FA02F3D040C2F120029140084366
:1002D00019467047064C074D06E0E06840F0010300
:1002E00094E8070098471034AC42F6D3FFF778FF44
:1002F0006059000880590008FEE7000070470000C0
:1003000070470000B0B5044600F0ECF8054640F236
:100310000400C2F200004068611C18BF044400BF22
:1003200000F0E0F8401BA042FAD3B0BD2DE9F04F39
:1003300082B00D68002D00F0CB8041F2004400F146
:100340003847C4F6000406224FEAB726A04208BF89
:100350000522052E38BF4FEAB722002401274FF0AF
:10036000000E0026009209E00D68013635FA06F20B
:100370000EF1040E04F1020400F0AA8007FA06FB55
:1003800015EA0B08F0D0D1F804A003220AF0030C00
:10039000ACF10105A240012D6FEA020910D8826874
:1003A000CD6802EA0902A5402A4382604268CAF386
:1003B000001522EA0B02B5402A43426006E000BF66
:1003C000BCF1030F02D14FF0030C21E0C2688D682D
:1003D00002EA0902A5402A43BCF1020FC26017D10C
:1003E0006FF0030202EA560202440EF01C030F25CE
:1003F000D2F820C005FA03FA0D692CEA0A0C05FAB6
:1004000003F343EA0C031362D1F804A00AF0030CCF
:1004100002680CFA04F302EA09021A431AF4403F94
:100420000260A1D041F26003C4F202031A6840F2F4
:10043000004942F001021A601A68C4F2010902F090
:1004400001020192019A26F003024FF6084A4A443B
:10045000CFF6FF7A52F80AC00EF00C050F23009F6A
:10046000AB402CEA030307FA05F52B4342F80A30A8
:10047000D9F808C04B684CEA0805DA0258BF2CEAE4
:10048000080540F20C4CC9F80850C4F2010CDCF825
:1004900000209F0242EA080558BF22EA0805CCF86E
:1004A0000050D9F804209D0342EA080758BF22EA09
:1004B0000807C9F80470D9F80020DB0342EA0807EE
:1004C00058BF22EA0807C9F8007001274CE700BFAF
:1004D00002B0BDE8F08F00001823002A08BF2823CF
:1004E000C150704740F2AC00C2F200000068704793
:1004F00040F2040040F2AC01C2F20000C2F200017E
:1005000040680A68104408607047000080B5032006
:1005100000F078F8002000F009F800281CBF012046
:1005200080BD00F029F8002080BD000070B540F2C9
:100530000406C2F200067168E1B1044640F2100000
:10054000C2F200004FF47A720068B2FBF1F1B0FB26
:10055000F1F000F089FE0F2C4FF0010508D838B9F2
:100560004FF0FF3021460022002500F01FF83460D4
:10057000284670BD012070BD82B041F25800C4F21F
:100580000200816841F001018160816801F0010190
:1005900001910199016841F080510160006800F00B
:1005A00080500090009802B000F0D0B810B54EF620
:1005B0000C5CCEF2000CDCF80030C3F3022E8EF09F
:1005C0000704042C28BF0424BEF103034FF0FF3EB0
:1005D0000EFA04F438BF0023A14399400EFA03F346
:1005E0009A43114300F00F0200F160430901043AFD
:1005F00003F564436244002848BF02F10C031970FC
:1006000010BD00004EF60C51CEF200010A684FF604
:10061000FF031A4060F30A2242F0806040F0FD7050
:1006200008607047B0F5007F42D0002840F080801D
:1006300047F21400C4F2000050F8141CC26E01F41A
:10064000C06122F48072B1F5806FC2662ED150F87D
:10065000141C012262F34A2140F8141C40F21001DC
:10066000C2F200010968322251434DF68362C4F29E
:100670001B32A1FB0212910C0268520511D54A1CD3
:100680000FD0026852050CD559B10268520508D541
:10069000012906D00268520503D50229A1F10401FF
:1006A000EAD10068400544BF03207047002070472E
:1006B00047F21400C4F2000050F8141CC26E01F49A
:1006C000C06142F48072B1F5806FC266EED150F81D
:1006D000141C012262F34A2140F8141C40F210015C
:1006E000C2F200010968322251434DF68362C4F21E
:1006F0001B32A1FB0212910C0268520511D54A1C53
:100700000FD0026852050CD559B10268520508D5C0
:10071000012906D00268520503D50229A1F104017E
:10072000EAD10068400544BF03207047BEE700BF20
:1007300047F21400C4F2000050F8141C022262F3C5
:100740004A2140F8141C00207047000047F20800BE
:10075000C4F20000016841F480410160704700006C
:100760002DE9F04182B00446807841F28806000706
:10077000C4F2020602D400202FE000BF56F8300C6D
:1007800010F080580BD156F8300C40F0805046F8ED
:10079000300C56F8300C00F080500190019847F270
:1007A0000007C4F20007386840F480703860FFF733
:1007B00099FE05463868C00500F1D680FFF792FE25
:1007C000401B0228F6D90320B8F1000F05D156F8D6
:1007D000301C21F0805146F8301C2168CA0713D123
:1007E0008A0719D44A071FD40A0725D48A062BD4AE
:1007F0004A0631D40A0637D4CA053DD48A0543D403
:100800004A0549D457E000BF3268636822F003020A
:100810001A4332608A07E5D53268A36822F00C02D9
:100820001A4332604A07DFD53268E36822F03002AB
:100830001A4332600A07D9D53268236922F0C00210
:100840001A4332608A06D3D53268636922F4406263
:100850001A4332604A06CDD53268A36922F4405269
:100860001A4332600A06C7D53268E36922F440426F
:100870001A433260CA05C1D53268236A22F4403275
:100880001A4332608A05BBD53268636A22F440227B
:100890001A4332604A050ED53268A36A22F4401228
:1008A0001A43B3F5801F326005D156F87C2C42F410
:1008B000801246F87C2C0A050ED53268E36A22F4D1
:1008C00040021A43B3F5800F326005D156F87C2CF4
:1008D00042F4801246F87C2CCA040ED53268236B91
:1008E00022F040721A43B3F1807F326005D156F88E
:1008F0007C2C42F4801246F87C2C8A040ED5326897
:10090000636B22F040621A43B3F1006F326005D18D
:1009100056F87C2C42F4801246F87C2C4A040ED502
:100920003268A36B22F040621A43B3F1006F326069
:1009300005D156F87C2C42F4801246F87C2C090430
:100940000ED53168E26B21F040511143B2F1805F66
:10095000316005D156F87C1C41F4803146F87C1C8E
:1009600002B0BDE8F08100BFB06810F4407010D054
:10097000216C88420BD0B068B16820F4407041F41B
:100980008031B160B16821F48031B160B060C007DE
:100990000CD1B068216C20F440700843B060002096
:1009A000B8F1000F7FF419AF11E700BFFFF79AFD10
:1009B000054641F2883700BFB0688007E9D4FFF7E9
:1009C00091FD401BB842F7D9FDE600002DE9F04744
:1009D00000286DD042F2000AC4F2020A0446DAF896
:1009E00000000D4600F00F0088420CD2DAF800003B
:1009F00020F00F002843CAF80000DAF8000000F0E9
:100A00000F00A84254D1216841F20808C807C4F277
:100A1000020803D1880740F1D880BDE06068022851
:100A20003AD0032840D158F8082C920140D5D8F884
:100A30000420D8F8043042F20046C3F3031302F056
:100A40000302D8F804700133C0F2F406032A04BF8D
:100A500043F20066C0F26E16B6FBF3F2D8F804302B
:100A6000C7F306277A43C3F34163022707EB430327
:100A7000B2FBF3F24BF20043C0F2C4439A4261D995
:100A8000D8F8002012F0F00F51D089075AD5A1688C
:100A9000002957D14BE000BF58F8081C89035CBF00
:100AA0000120BDE8F08707E058F8081C490503D489
:100AB0000120BDE8F08700BFD8F8001001F00C015C
:100AC00004293FD0D8F8001001F00C01082939D0D2
:100AD000D8F8001001F00C010C2933D1D8F804101B
:100AE000D8F8042042F20047C2F3031201F00301D8
:100AF000D8F804300132C0F2F407032904BF43F2EE
:100B00000067C0F26E17B7FBF2F1D8F80420C3F308
:100B100006235943C2F34162022303EB4202B1FBB5
:100B2000F2F14BF20042C0F2C44291420AD9D8F825
:100B30000010082262F307114FF00109C8F80010F5
:100B400002E000BF4FF00009D8F8001021F00301C7
:100B50000843C8F80000FFF7C5FC064641F2883795
:100B6000D8F80000616800F00C00B0EB810F07D0EE
:100B7000FFF7B8FC801BB842F2D90320BDE8F0872C
:100B80002168880708D4B9F1000F1ED0D8F80000FA
:100B900020F0F00017E000BF480705D5D8F80000A6
:100BA00040F4E060C8F80000080706D5D8F8000057
:100BB000072262F30D20C8F80000D8F80000A268F0
:100BC00020F0F0001043C8F80000DAF8000000F050
:100BD0000F00A8421BD9DAF8000020F00F002843CC
:100BE000CAF80000FFF77EFC064641F2883700BFD6
:100BF000DAF8000000F00F00A84207D0FFF772FCFF
:100C0000801BB842F4D90320BDE8F087216848076B
:100C100007D5D8F80000E26820F4E0601043C8F877
:100C20000000080708D5D8F80000216920F46050BA
:100C300040EAC100C8F80000D8F8000042F20041C4
:100C4000C0F2F40100F00C00042808462DD0D8F8BA
:100C5000000000F00C00082843F20060C0F26E10A3
:100C600023D0D8F8002002F00C020C2A1CD1D8F8AE
:100C70000420D8F8043002F00302C3F30313D8F8B9
:100C800004700133032A08BF0146B1FBF3F0D8F822
:100C90000410C7F30627C1F341610222784302EB37
:100CA0004101B0FBF1F000E00020D8F8001044F260
:100CB0002872C1F30311C0F60002515C40F2100229
:100CC00001F01F0120FA01F140F20400C2F200001D
:100CD0000068C2F200021160BDE8F047FFF726BCD1
:100CE00040F2100041F20801C2F20000C4F2020119
:100CF0000068096844F23872C1F30221C0F60002AC
:100D0000515C01F01F01C8407047000040F2100024
:100D100041F20801C2F20000C4F202010068096851
:100D200044F23872C1F3C221C0F60002515C01F0F6
:100D30001F01C8407047000080B541F20C01C4F2A9
:100D4000020151F8040C42F20042C0F2F40200F039
:100D50000C000428104608BF80BD51F8040C00F0B8
:100D60000C00082843F20060C0F26E1022D051F847
:100D7000043C03F00C030C2B1CBF002080BDD1F8F9
:100D800000C00B680CF0030CC3F3031E0B680EF1DC
:100D9000010EBCF1030F08BF02460968B2FBFEF06A
:100DA000C3F30623C1F341610222584302EB410120
:100DB000B0FBF1F080BD00002DE9F04182B00028C9
:100DC00000F006810446007841F20006C007C4F234
:100DD000020655D12078800774D42078000700F1EE
:100DE00097802078400700F1B7802078800600F1D6
:100DF0000781E069002840D0B16801F00C010C299E
:100E000040F05681012800F0E380F068216A00F08C
:100E100003028A4240F0DC80626A6FF00F0300F048
:100E2000F00103EB0212914240F0D280A16A00F47B
:100E3000FE42B2EB012F40F0CB80E16A00F0784235
:100E4000B2EBC16F40F0C480226B0023CFF6E07399
:100E500003EA025200F4C001A2F50012914240F0F0
:100E6000B780616B4FF07E4202EA016100F0C06022
:100E700001F17E41884240F0AB800020F1E100BFEB
:100E8000B06800F00C01F06808295BD0032281F003
:100E90000C0122EA00000844B0FA80F0400951D168
:100EA0006068B0F5803F07D0B0F5A02F40F0D68045
:100EB000306840F480203060306840F4803030602A
:100EC000D7E000BFB068F16800F00C00042869D0DA
:100ED00001F0030180F00C0081F002010844B0FA37
:100EE00080F040095ED1E1683068002900F0CE80D2
:100EF00040F480703060FFF7F5FA05463068400531
:100F000000F1EC80FFF7EEFA401B0228F6D920E151
:100F10006169D6F89400002900F08C8040F001004F
:100F2000C6F89400FFF7DEFA054600BFD6F8940035
:100F300080073FF556AFFFF7D5FA401B0228F5D9D9
:100F400007E100BF306880037FF544AF6068002888
:100F50007FF440AF3CE000BFB06D10F0805808D186
:100F6000B06D40F08050B065B06D00F080500190E1
:100F7000019847F20007C4F200073868C0052BD477
:100F8000386840F480703860FFF7ACFA054600BF5F
:100F90003868C00520D4FFF7A5FA401B0228F7D90E
:100FA000D7E000BF3068400501D5E06880B17068C7
:100FB000216920F0FE4040EA0160706040F20400C8
:100FC000C2F200000068FFF7B1FA00283FF405AF55
:100FD000012002B0BDE8F081A068012808D00528F2
:100FE00040F09A80D6F8900040F00400C6F89000D7
:100FF000D6F8900040F00100C6F890009AE000BFDB
:10100000A169D6F89800002970D040F00100C6F818
:101010009800FFF767FA0546D6F8980080073FF575
:10102000E8AEFFF75FFA401B02284FF00300F3D948
:1010300017E100BF20F00100C6F89400FFF752FA54
:10104000054600BFD6F8940080077FF5CAAEFFF7CB
:1010500049FA401B0228F5D97BE000BF316800281F
:1010600021F480313160316821F48021316000F059
:101070008F80FFF737FA0546306880033FF5AAAE48
:10108000FFF730FA401B6428F6D962E020F4807044
:101090003060FFF727FA0546306840057FF59DAEC2
:1010A000FFF720FA401B02284FF00300F4D9D8E0E4
:1010B0003168022821F0807131604FD1FFF712FAB8
:1010C000054600BF3068800140F18E80FFF70AFAC4
:1010D000401B02284FF00300F4D9C2E07068216978
:1010E00020F0FE4040EA0160706076E620F00100EA
:1010F000C6F89800FFF7F6F9054600BFD6F8980045
:1011000080077FF576AEFFF7EDF9401B02284FF020
:101110000300F3D9A5E000BFD6F89010002821F015
:101120000101C6F89010D6F8901021F00401C6F81D
:1011300090103DD0FFF7D6F9054641F2883700BF41
:10114000D6F89000800745D4FFF7CCF9401BB84291
:10115000F6D9032002B0BDE8F08100BFF0684FF679
:10116000FF7120F00300F060F068CFF6EE610840F8
:10117000F060FFF7B7F90446306880017FF57DAE77
:10118000FFF7B0F9001B02284FF00300F4D968E024
:10119000FFF7A8F9054600BF306880037FF51AAE57
:1011A000FFF7A0F9401B64284FF00300F4D958E082
:1011B000FFF798F9054641F2883700BFD6F890004E
:1011C000800707D5FFF78EF9401BB8424FF00300A8
:1011D000F4D946E0B8F1000F7FF407AEB06D20F00F
:1011E0008050B06501E600BFF06848F20C01C0F223
:1011F0009F1104F1200700EA010C8ECF6FF00F0061
:10120000D4E90C5400EB02100022CFF6E07241EA60
:101210000C0102EA05520843A2F500124FF07E4588
:1012200040EA032005EA0465104305F17E4540EAE3
:10123000C7602843F060306840F080703060F0682C
:1012400040F08070F060FFF74DF90446306880018F
:101250003FF513AEFFF746F9001B02284FF00300DD
:10126000F4D902B0BDE8F081411E0020B0EB116F4F
:101270001CBF012070474EF21002CEF200025160F6
:101280004EF62351CEF20001F0230B70072190603F
:101290001160704790F88010012904BF0220704748
:1012A0002421C0F8841002681168136823F0010338
:1012B000136021F000530021416613602022C0F822
:1012C000842080F88010084670470000B0B590F880
:1012D0008020012A04BF0220B0BD2422C0F884204F
:1012E0000268D0F864E0D2F800C01368BEF1000FC5
:1012F00023F001031360936823F0606341EA030164
:10130000916019D09368916845F6381E490FC0F670
:10131000000E45F640151EF80140C0F60005695C58
:10132000C3F34263E400B4FBF1F11EF80340EB5C4D
:10133000E500B5FBF3F301E001210123A0F86A10F9
:101340002021A0F86830C2F800C0C0F88410002145
:1013500080F880100846B0BDB0B590F88020012A12
:1013600004BF0220B0BD2422C0F884200268D0F857
:1013700064E0D2F800C01368BEF1000F23F001034F
:101380001360936823F0604341EA0301916019D030
:101390009368916845F6381E490FC0F6000E45F671
:1013A00040151EF80140C0F60005695CC3F34263B6
:1013B000E400B4FBF1F11EF80340EB5CE500B5FB83
:1013C000F3F301E001210123A0F86A102021A0F825
:1013D0006830C2F800C0C0F88410002180F8801086
:1013E0000846B0BDB0B582B0B0B10446D0F88400B4
:1013F00028B9002084F88000204600F059F8242005
:10140000C4F884002068016821F0010101602046D1
:1014100002F0DAFD012803D1012002B0B0BD00BF07
:10142000A06A10B1204602F05BFD2068416821F4FB
:1014300090414160816821F02A018160016841F09A
:10144000010101600020C4F88C00FFF74BF821680F
:1014500005460A6812070CD56FF07E4C20464FF403
:10146000001100222B46CDF800C002F0FFFE78B933
:101470002168086840070FD56FF07E4C20464FF476
:10148000800100222B46CDF800C002F0EFFE18B11B
:10149000032002B0B0BD00BF2020C4F88400C4F80F
:1014A00088000020E06684F8800002B0B0BD000033
:1014B00010B596B00446684608303C21FEF7E0FEC1
:1014C000206843F60001C4F20101884202D016B040
:1014D00010BD00BF01200090002468460194FFF772
:1014E0003FF9002818BFFEF70BFF41F24C00C4F291
:1014F0000200416941F480414161416901F4804148
:1015000011911199016841F001010160006811A970
:1015100000F00100119011984FF4C060119002206A
:10152000CDE91204072015904FF090401494FEF777
:10153000FDFE16B010BD00002DE9F04182B004465A
:10154000D0F8840020280BD10D4600294FF001006F
:101550005CD01746002A59D094F88000012803D1A6
:10156000022002B0BDE8F081012084F88000002054
:10157000C4F88C0021209846C4F88400FEF7B2FF1E
:10158000A4F85470A4F85670A1680746B1F5805FBE
:1015900001D1206910B12E46002500E00026002070
:1015A00084F880000CE000BF35F8020B21686FF36F
:1015B0005F2088620026B4F856000138A4F856006F
:1015C000B4F8560080B12046802100223B46CDF879
:1015D000008002F04BFE80B9002EE5D016F8010B1A
:1015E00021688862E7E700BF2046402100223B4691
:1015F000CDF8008002F03AFE20B1032002B0BDE831
:10160000F08100BF2020C4F88400002002B0BDE8B3
:10161000F0810000FEE7000040F21841C4F600012E
:101620000A6942F400720A610A6942F480720A612E
:101630000A6842F020020A602022C1F8FC230A69ED
:1016400042F020020A6100BF00BF00BF0A6842F0FA
:1016500020020A600A6842F480720A600022C1F81F
:10166000FC230B6943F020030B6100BF00BF00BFE8
:101670000B6843F020030B600B6843F480730B602E
:101680000B6943F400730B610B6943F480730B61C6
:101690000B6843F020030B602123C1F8FC330B6976
:1016A00043F020030B6100BF00BF00BF0B6843F095
:1016B00020030B600B6843F480730B60C1F8FC23BC
:1016C0000A6942F020020A6100BF00BF00BF0A6839
:1016D00042F020020A600A6842F480720A600A69D5
:1016E00042F400720A610A6942F480720A610A686F
:1016F00042F020020A602222C1F8FC230A6942F06B
:1017000020020A6100BF00BF00BF0A6842F0200249
:101710000A600A6842F480720A6000BF00BF00BF1E
:101720000A6842F400720A604FF496320B69053A77
:1017300043F400730B610B6843F480730B600B6818
:1017400043F020030B60C1F8FC030B6943F0200356
:101750000B6100BF00BF00BF0B6843F020030B60AC
:101760000B6843F480730B6000BF00BF00BF0B68C1
:1017700043F400730B600B6943F400730B610B6857
:1017800043F480730B600B6843F020030B60C1F8D7
:10179000FC030B6943F020030B6100BF00BF00BFD7
:1017A0000B6843F020030B600B6843F480730B60FD
:1017B00000BF00BF00BF0B6843F400730B600B69F0
:1017C00043F400730B610B6843F480730B600B6888
:1017D00043F020030B60C1F8FC030B6943F02003C6
:1017E0000B6100BF00BF00BF0B6843F020030B601C
:1017F0000B6843F480730B6000BF00BF00BF0B6831
:1018000043F400730B600B6943F400730B610B68C6
:1018100043F480730B600B6843F020030B60C1F846
:10182000FC030B6943F020030B6100BF00BF00BF46
:101830000B6843F020030B600B6843F480730B606C
:1018400000BF00BF00BF0B6843F400730B600B695F
:1018500043F400730B610B6843F480730B600B68F7
:1018600043F020030B60C1F8FC030B6943F0200335
:101870000B6100BF00BF00BF0B6843F020030B608B
:101880000B6843F480730B6000BF00BF00BF0B68A0
:1018900043F400730B607FF449AF70472DE9F041CA
:1018A0000A78FAB144F2407804464D1C002740F211
:1018B0003F16C0F6000800BFA2F12000C1B24900E7
:1018C00051FA80F008EB0012B1B2204600F00CF89B
:1018D000EA5D002A08BFBDE8F081103E132F07F132
:1018E0000107E9D3BDE8F0812DE9F04740F2184344
:1018F000C4F600031F694FF0200C47F400771F6106
:101900001F694FF0210E47F480771F611F6840F276
:101910000C0947F020071F60C3F8FCC31F6940F2A1
:10192000180A47F020071F6100BF00BF00BF1F68F3
:101930004FF0220847F020071F601F68C2F200091D
:1019400047F480771F60C3F8FC031F69C2F2000AE6
:1019500047F020071F6100BF00BF00BF1F6847F0AE
:1019600020071F601F6847F480771F601F6947F4D6
:1019700000771F611F6947F480771F611F6847F078
:1019800020071F60C3F8FCE31C6944F020041C61BD
:1019900000BF00BF00BF1C6844F020041C601C682E
:1019A00044F480741C60C3F8FC131C6944F02004E8
:1019B0001C6100BF00BF00BF1C6844F020041C6015
:1019C0001C6844F480741C60002400BF1D6945F449
:1019D00000751D611D6945F480751D611D6845F028
:1019E00020051D60C3F8FC831D6945F020051D61BD
:1019F00000BF00BF00BF1D6845F020051D601D68C9
:101A000045F480751D6000BF00BF00BF1D6845F430
:101A100000751D60002500BF32F81460EE40F60727
:101A2000564608BF4E4636881F6947F400771F6147
:101A30001F6847F480771F601F6847F020071F600A
:101A4000C3F8FC631E6946F020061E6100BF00BF9C
:101A500000BF1E6846F020061E601E6846F48076B1
:101A60001E6000BF00BF00BF1E6846F400761E6007
:101A700032F81460EE40B607564658BF4E463688D8
:101A80001F6947F400771F611F6847F480771F6064
:101A90001F6847F020071F60C3F8FC631E6946F00B
:101AA00020061E6100BF00BF00BF1E6846F0200672
:101AB0001E601E6846F480761E6000BF00BF00BF37
:101AC0001E6846F400761E6032F81460EE40760719
:101AD000564658BF4E4636881F6947F400771F6147
:101AE0001F6847F480771F601F6847F020071F605A
:101AF000C3F8FC631E6946F020061E6100BF00BFEC
:101B000000BF1E6846F020061E601E6846F4807600
:101B10001E6000BF00BF00BF1E6846F400761E6056
:101B200032F81460EE403607564658BF4E463688A7
:101B30001F69043547F400771F611F68102D47F4B3
:101B400080771F601F6847F020071F60C3F8FC63A1
:101B50001E6946F020061E6100BF00BF00BF1E6860
:101B600046F020061E601E6846F480761E6000BFA8
:101B700000BF00BF1E6846F400761E607FF44CAFC5
:101B80001D69013045F400751D611D69013445F47E
:101B900080751D611D68182C45F020051D60C3F877
:101BA000FCC31D6945F020051D6100BF00BF00BFDB
:101BB0001D6845F020051D601D6845F480751D6099
:101BC000C5B2C3F8FC531D6945F020051D6100BF77
:101BD00000BF00BF1D6845F020051D601D6845F46D
:101BE00080751D601D6945F400751D611D6945F412
:101BF00080751D611D6845F020051D60C3F8FCE37C
:101C00001D6945F020051D6100BF00BF00BF1D68B4
:101C100045F020051D601D6845F480751D60C3F802
:101C2000FC131D6945F020051D6100BF00BF00BF0A
:101C30001D6845F020051D601D6845F480751D6018
:101C400008BFBDE8F087C1E62DE9F04F8BB0002654
:101C500041F24C000596C4F20200016840F21845BA
:101C600041F0040101600168C4F6000501F00401BF
:101C700006910699016801AC41F00101016001681B
:101C800040F6140901F00101069106990168C4F6B5
:101C9000000941F0020101600068214600F00200E5
:101CA000069006984FF44870019001200290A5F12B
:101CB00018000127CDE90366FEF738FB4FF480706A
:101CC000CDE901074FF090402146CDE90366FEF7CC
:101CD0002DFB4FF6FF7005F57A7406904FF0030860
:101CE00006A920460A964FF6FF7B0797CDE90868BC
:101CF000FEF71CFB4FF6004ACFF6FF7A55F80A00B4
:101D000006A940F4807045F80A0028684FF6FF776E
:101D100040F408702860286940F400702861286940
:101D200040F480702861286840F020002860C9F8DD
:101D30000060286940F02000286100BF00BF00BF9C
:101D4000286840F020002860286840F480702860EF
:101D500020460A96CDF818B0CDF82480CDE9076664
:101D6000FEF7E4FA4FF6104BCFF6FF7B55F80B0069
:101D700007A940F4807045F80B0000BF00BF00BF0A
:101D8000D5F8F89355F80A0040F4807045F80A0039
:101D9000012081E8410106A920460A960697FEF730
:101DA000C5FA286848F2302140F40070286040F2FB
:101DB0001A00C2F20000A0F800900088884203D107
:101DC00000F078F802E000BF00F0E8FD2869002686
:101DD00040F40070286128694FF6FF7840F4807065
:101DE000286128684FF0030940F02000286040F681
:101DF0001400C4F600000660286906A940F020001F
:101E0000286100BF00BF00BF286840F020002860A4
:101E1000286840F48070286020460A96CDE906863E
:101E2000CDE90869FEF782FA55F80B0007A940F4DE
:101E3000807045F80B0000BF00BF00BFD5F8F873F5
:101E400055F80A0040F4807045F80A00012081E846
:101E5000410206A920460A96CDF81880FEF766FAD8
:101E6000286840F40070286040F21A00C2F20000B6
:101E700007800BB0BDE8F08F81B0ADF80200BDF86F
:101E8000020040F20C01C2F20001088001B070476C
:101E900081B0ADF80200BDF8020040F21801C2F2B4
:101EA0000001088001B07047FEE7000070470000A5
:101EB0007047000040F21840C4F60000016900229B
:101EC00041F40071016101694FF0030C41F480712C
:101ED0000161016841F020010160C0F8FC23016943
:101EE00041F02001016100BF00BF00BF016841F067
:101EF00020010160016841F4807101600121C0F896
:101F0000FC13036943F02003036100BF00BF00BF5F
:101F1000036843F020030360036843F480730360A5
:101F2000036943F400730361036943F4807303613D
:101F3000036843F020030360C0F8FC13036943F017
:101F40002003036100BF00BF00BF036843F020030C
:101F50000360036843F480730360C0F8FC230269E4
:101F600042F02002026100BF00BF00BF026842F0E1
:101F700020020260026842F480720260026942F448
:101F800000720261026942F480720261026842F0EA
:101F9000200202601022C0F8FC23026942F02002F5
:101FA000026100BF00BF00BF026842F02002026071
:101FB000026842F48072026041F29072C0F8FC2321
:101FC000026942F02002026100BF00BF00BF026848
:101FD00042F020020260026842F4807202600269EC
:101FE00042F400720261026942F480720261026886
:101FF00042F0200202606022C0F8FC23026942F035
:102000002002026100BF00BF00BF026842F0200250
:102010000260026842F4807202604FF41C52C0F801
:10202000FC23026942F02002026100BF00BF00BF32
:10203000026842F020020260026842F4807202608C
:10204000026942F400720261026942F48072026124
:10205000026842F0200202606122C0F8FC2302699B
:1020600042F02002026100BF00BF00BF026842F0E0
:1020700020020260026842F480720260C0F8FC1321
:10208000016941F02001016100BF00BF00BF01688C
:1020900041F020010160016841F480710160016933
:1020A00041F400710161016941F4807101610168CD
:1020B00041F0200101604621C0F8FC13016941F0A4
:1020C0002001016100BF00BF00BF016841F0200195
:1020D0000160016841F4807101600221C0F8FC13C5
:1020E000026942F02002026100BF00BF00BF026827
:1020F00042F020020260026842F4807202600269CB
:1021000042F400720261026942F480720261026864
:1021100042F0200202601322C0F8FC23026942F060
:102120002002026100BF00BF00BF026842F020022F
:102130000260026842F48072026048F21002C0F845
:10214000FC23026942F02002026100BF00BF00BF11
:10215000026842F020020260026842F4807202606B
:10216000026942F400720261026942F48072026103
:10217000026842F0200202601222C0F8FC230269C9
:1021800042F02002026100BF00BF00BF026842F0BF
:1021900020020260026842F48072026048F2FE028D
:1021A000C0F8FC23026942F02002026100BF00BFB8
:1021B00000BF026842F020020260026842F48072AE
:1021C0000260026942F400720261026942F48072A4
:1021D0000261026842F020020260C0F8FC1301694B
:1021E00041F02001016100BF00BF00BF016841F064
:1021F00020010160016841F4807101604FF4A06129
:10220000C0F8FC13016941F02001016100BF00BF6B
:1022100000BF016841F020010160016841F4807154
:102220000160016941F400710161016941F480714B
:102230000161016841F020010160C0F8FCC302693E
:1022400042F02002026100BF00BF00BF026842F0FE
:1022500020020260026842F48072026041F23002A1
:10226000C0F8FC23026942F02002026100BF00BFF7
:1022700000BF026842F020020260026842F48072ED
:102280000260026942F400720261026942F48072E3
:102290000261026842F0200202603022C0F8FC2392
:1022A000026942F02002026100BF00BF00BF026865
:1022B00042F020020260026842F48072026040F242
:1022C0000332C0F8FC23036943F02003036100BF1D
:1022D00000BF00BF036843F020030360036843F4BA
:1022E00080730360036943F400730361036943F47B
:1022F00080730361036843F0200303603123C0F857
:10230000FC33036943F02003036100BF00BF00BF3B
:10231000036843F020030360036843F480730360A1
:10232000C0F8FC23036943F02003036100BF00BF32
:1023300000BF036843F020030360036843F4807325
:102340000360036943F400730361036943F480731A
:102350000361036843F0200303603223C0F8FC33B9
:10236000036943F02003036100BF00BF00BF03689F
:1023700043F020030360036843F480730360C0F8F4
:10238000FC23036943F02003036100BF00BF00BFCB
:10239000036843F020030360036843F48073036021
:1023A000036943F400730361036943F480730361B9
:1023B000036843F0200303603323C0F8FC33036950
:1023C00043F02003036100BF00BF00BF036843F078
:1023D00020030360036843F4807303604FF4407389
:1023E000C0F8FC33016941F02001016100BF00BF6A
:1023F00000BF016841F020010160016841F4807173
:102400000160016941F400710161016941F4807169
:102410000161016841F0200101603421C0F8FC1322
:10242000016941F02001016100BF00BF00BF0168E8
:1024300041F020010160016841F480710160C0F841
:10244000FCC3016941F02001016100BF00BF00BF72
:10245000016841F020010160016841F48071016070
:10246000016941F400710161016941F48071016108
:10247000016841F0200101603521C0F8FC130169B9
:1024800041F02001016100BF00BF00BF016841F0C1
:1024900020010160016841F480710160C0F8FC23F3
:1024A000016941F02001016100BF00BF00BF016868
:1024B00041F020010160016841F48071016001690F
:1024C00041F400710161016941F4807101610168A9
:1024D00041F0200101603621C0F8FC13016941F090
:1024E0002001016100BF00BF00BF016841F0200171
:1024F0000160016841F4807101601421C0F8FC138F
:10250000016941F02001016100BF00BF00BF016807
:1025100041F020010160016841F4807101600169AE
:1025200041F400710161016941F480710161016848
:1025300041F0200101603721C0F8FC13016941F02E
:102540002001016100BF00BF00BF016841F0200110
:102550000160016841F480710160C0F8FC230169E9
:1025600041F02001016100BF00BF00BF016841F0E0
:1025700020010160016841F480710160016941F44A
:1025800000710161016941F480710161016841F0EC
:10259000200101603821C0F8FC13016941F02001DD
:1025A000016100BF00BF00BF016841F02001016070
:1025B000016841F480710160C0F8FC23016941F0B9
:1025C0002001016100BF00BF00BF016841F0200190
:1025D0000160016841F480710160016941F400719A
:1025E0000161016941F480710161016841F02001DC
:1025F00001603921C0F8FC13016941F0200101613B
:1026000000BF00BF00BF016841F020010160016808
:1026100041F480710160C0F8FC23016941F02001A0
:10262000016100BF00BF00BF016841F020010160EF
:10263000016841F480710160016941F40071016138
:10264000016941F480710161016841F0200101607C
:102650003A21C0F8FC13016941F02001016100BF7B
:1026600000BF00BF016841F020010160016841F432
:1026700080710160C0F8FC33016941F02001016103
:1026800000BF00BF00BF016841F020010160016888
:1026900041F480710160016941F4007101610169D7
:1026A00041F480710161016841F0200101603B212A
:1026B000C0F8FC13016941F02001016100BF00BFB7
:1026C00000BF016841F020010160016841F48071A0
:1026D0000160C0F8FCC3016941F02001016100BF45
:1026E00000BF00BF016841F020010160016841F4B2
:1026F00080710160016941F400710161016941F477
:1027000080710161016841F0200101603C21C0F845
:10271000FC13016941F02001016100BF00BF00BF4F
:10272000016841F020010160016841F4807101609D
:10273000C0F8FC23016941F02001016100BF00BF26
:1027400000BF016841F020010160016841F480711F
:102750000160016941F400710161016941F4807116
:102760000161016841F0200101603D21C0F8FC13C6
:10277000016941F02001016100BF00BF00BF016895
:1027800041F020010160016841F4807101604FF463
:10279000A051C0F8FC13016941F02001016100BFA4
:1027A00000BF00BF016841F020010160016841F4F1
:1027B00080710160016941F400710161016941F4B6
:1027C00080710161016841F0200101609221C0F82F
:1027D000FC13016941F02001016100BF00BF00BF8F
:1027E000016841F020010160016841F480710160DD
:1027F0004FF40071C0F8FC13016941F02001016140
:1028000000BF00BF00BF016841F020010160016806
:1028100041F480710160016941F400710161016955
:1028200041F480710161016841F020010160932150
:10283000C0F8FC13016941F02001016100BF00BF35
:1028400000BF016841F020010160016841F480711E
:102850000160C0F8FC23016941F02001016100BF63
:1028600000BF00BF016841F020010160016841F430
:1028700080710160016941F400710161016941F4F5
:1028800080710161016841F0200101609021C0F870
:10289000FC13016941F02001016100BF00BF00BFCE
:1028A000016841F020010160016841F4807101601C
:1028B00040F60D01C0F8FC13016941F020010161EF
:1028C00000BF00BF00BF016841F020010160016846
:1028D00041F480710160016941F400710161016995
:1028E00041F480710161016841F020010160C0F88C
:1028F000FCC3016941F02001016100BF00BF00BFBE
:10290000016841F020010160016841F480710160BB
:1029100041F21801C0F8FC13016941F02001016186
:1029200000BF00BF00BF016841F0200101600168E5
:1029300041F480710160016941F400710161016934
:1029400041F480710161016841F0200101600721BB
:10295000C0F8FC13016941F02001016100BF00BF14
:1029600000BF016841F020010160016841F48071FD
:10297000016040F27311C0F8FC13016941F02001BD
:10298000016100BF00BF00BF016841F0200101608C
:10299000016841F480710160704700002DE9F04F3B
:1029A00081B040F21844C4F6000420694FF01209C7
:1029B00040F4007020612069002540F4807020619F
:1029C0002068112640F020002060E320C4F8FC03BA
:1029D00020694FF0130B40F02000206100BF00BFC2
:1029E00000BF2068102740F02000206020684FF0D2
:1029F000070840F48070206043F20800C4F8FC032C
:102A0000206940F02000206100BF00BF00BF2068A7
:102A100040F020002060206840F480702060206931
:102A200040F400702061206940F4807020612068CB
:102A300040F020002060E720C4F8FC03206940F04B
:102A40002000206100BF00BF00BF206840F02000D0
:102A50002060206840F480702060C4F8FC932069F6
:102A600040F02000206100BF00BF00BF206840F0A0
:102A700020002060206840F480702060206940F4CD
:102A800000702061206940F480702061206840F06F
:102A900020002060EF20C4F8FC03206940F02000F3
:102AA000206100BF00BF00BF206840F02000206010
:102AB000206840F48070206041F23120C4F8FC03AB
:102AC000206940F02000206100BF00BF00BF2068E7
:102AD00040F020002060206840F480702060206971
:102AE00040F400702061206940F48070206120680B
:102AF00040F0200020600120C4F8FC03206940F071
:102B00002000206100BF00BF00BF206840F020000F
:102B10002060206840F480702060C4F8FC53206975
:102B200040F02000206100BF00BF00BF206840F0DF
:102B300020002060206840F480702060206940F40C
:102B400000702061206940F480702061206840F0AE
:102B5000200020600220C4F8FC03206940F020001F
:102B6000206100BF00BF00BF206840F0200020604F
:102B7000206840F4807020604FF4E060C4F8FC03EB
:102B8000206940F02000206100BF00BF00BF206826
:102B900040F020002060206840F4807020602069B0
:102BA00040F400702061206940F48070206120684A
:102BB00040F0200020600320C4F8FC03206940F0AE
:102BC0002000206100BF00BF00BF206840F020004F
:102BD0002060206840F48070206041F23000C4F82A
:102BE000FC03206940F02000206100BF00BF00BF4F
:102BF000206840F020002060206840F48070206051
:102C0000206940F400702061206940F480702061E8
:102C1000206840F0200020600420C4F8FC032069F4
:102C200040F02000206100BF00BF00BF206840F0DE
:102C300020002060206840F480702060C4F8FC53BD
:102C4000206940F02000206100BF00BF00BF206865
:102C500040F020002060206840F4807020602069EF
:102C600040F400702061206940F480702061206889
:102C700040F0200020600820C4F8FC03206940F0E8
:102C80002000206100BF00BF00BF206840F020008E
:102C90002060206840F48070206040F20720C4F873
:102CA000FC03206940F02000206100BF00BF00BF8E
:102CB000206840F020002060206840F48070206090
:102CC000206940F400702061206940F48070206128
:102CD000206840F0200020600920C4F8FC0320692F
:102CE00040F02000206100BF00BF00BF206840F01E
:102CF00020002060206840F480702060C4F8FC53FD
:102D0000206940F02000206100BF00BF00BF2068A4
:102D100040F020002060206840F48070206020692E
:102D200040F400702061206940F4807020612068C8
:102D300040F0200020600A20C4F8FC03206940F025
:102D40002000206100BF00BF00BF206840F02000CD
:102D50002060206840F480702060C4F8FC53206933
:102D600040F02000206100BF00BF00BF206840F09D
:102D700020002060206840F480702060206940F4CA
:102D800000702061206940F480702061206840F06C
:102D9000200020600C20C4F8FC03206940F02000D3
:102DA000206100BF00BF00BF206840F0200020600D
:102DB000206840F480702060C4F8FC53206940F023
:102DC0002000206100BF00BF00BF206840F020004D
:102DD0002060206840F480702060206940F400701A
:102DE0002061206940F480702061206840F020005C
:102DF00020600D20C4F8FC03206940F02000206111
:102E000000BF00BF00BF206840F0200020602068A5
:102E100040F480702060C4F8FC53206940F020002A
:102E2000206100BF00BF00BF206840F0200020608C
:102E3000206840F480702060206940F400702061B8
:102E4000206940F480702061206840F020002060FC
:102E50000F20C4F8FC03206940F02000206100BF6F
:102E600000BF00BF206840F020002060206840F4D0
:102E700080702060C4F8FC53206940F0200020617D
:102E800000BF00BF00BF206840F020002060206825
:102E900040F480702060206940F400702061206957
:102EA00040F480702061206840F0200020601020F5
:102EB000C4F8FC03206940F02000206100BF00BF7F
:102EC00000BF206840F020002060206840F480703F
:102ED0002060C4F8FC53206940F02000206100BF4E
:102EE00000BF00BF206840F020002060206840F450
:102EF00080702060206940F400702061206940F4F7
:102F000080702061206840F020002060C4F8FC63DD
:102F1000206940F02000206100BF00BF00BF206892
:102F200040F020002060206840F48070206007207E
:102F3000C4F8FC03206940F02000206100BF00BFFE
:102F400000BF206840F020002060206840F48070BE
:102F50002060206940F400702061206940F4807096
:102F60002061206840F020002060C4F8FC932069B4
:102F700040F02000206100BF00BF00BF206840F08B
:102F800020002060206840F480702060C4F8FC536A
:102F9000206940F02000206100BF00BF00BF206812
:102FA00040F020002060206840F48070206020699C
:102FB00040F400702061206940F480702061206836
:102FC00040F020002060C4F8FCB3206940F02000ED
:102FD000206100BF00BF00BF206840F020002060DB
:102FE000206840F480702060C4F8FC53206940F0F1
:102FF0002000206100BF00BF00BF206840F020001B
:103000002060206840F480702060C820FDF77AF9C5
:1030100020694FF0320A40F400702061206940F4CA
:1030200080702061206840F020002060C4F8FC73AC
:103030002069102740F02000206100BF00BF00BFC2
:10304000206840F020002060206840F480702060FC
:1030500041F29060C4F8FC03206940F02000206138
:1030600000BF00BF00BF206840F020002060206843
:1030700040F480702060206940F400702061206975
:1030800040F480702061206840F020002060C4F887
:10309000FC63206940F02000206100BF00BF00BF3A
:1030A000206840F020002060206840F4807020609C
:1030B00040F22720C4F8FC03206940F02000206182
:1030C00000BF00BF00BF206840F0200020602068E3
:1030D00040F4807020603220FDF714F9206940F43C
:1030E00000702061206940F480702061206840F009
:1030F00020002060C4F8FC93206940F0200020618B
:1031000000BF00BF00BF206840F0200020602068A2
:1031100040F4807020601D20C4F8FC03206940F05A
:103120002000206100BF00BF00BF206840F02000E9
:103130002060206840F4807020603220FDF7E2F8C3
:10314000206940F400702061206940F480702061A3
:10315000206840F020002060C4F8FCB3206940F0F3
:103160002000206100BF00BF00BF206840F02000A9
:103170002060206840F4807020604FF40060C4F844
:10318000FC03206940F02000206100BF00BF00BFA9
:10319000206840F020002060206840F480702060AB
:1031A000206940F400702061206940F48070206143
:1031B000206840F0200020602920C4F8FC0320692A
:1031C00040F02000206100BF00BF00BF206840F039
:1031D00020002060206840F4807020601420C4F833
:1031E000FC03206940F02000206100BF00BF00BF49
:1031F000206840F020002060206840F4807020604B
:10320000206940F400702061206940F480702061E2
:10321000206840F0200020602B20C4F8FC032069C7
:1032200040F02000206100BF00BF00BF206840F0D8
:1032300020002060206840F4807020600B20C4F8DB
:10324000FC03206940F02000206100BF00BF00BFE8
:10325000206840F020002060206840F480702060EA
:103260003220FDF74FF82069032140F400702061FF
:103270002069072240F480702061206840F020001F
:1032800020602020C4F8FC03206940F02000206169
:1032900000BF00BF00BF206840F020002060206811
:1032A00040F480702060C4F8FC53206940F0200096
:1032B000206100BF00BF00BF206840F020002060F8
:1032C000206840F480702060206940F40070206124
:1032D000206940F480702061206840F02000206068
:1032E0002120C4F8FC03206940F02000206100BFC9
:1032F00000BF00BF206840F020002060206840F43C
:1033000080702060C4F8FC53206940F020002061E8
:1033100000BF00BF00BF206840F020002060206890
:1033200040F480702060206940F4007020612069C2
:1033300040F480702061206840F020002060302040
:10334000C4F8FC03206940F02000206100BF00BFEA
:1033500000BF206840F020002060206840F48070AA
:103360002060C4F8FC83206940F02000206100BF89
:1033700000BF00BF206840F020002060206840F4BB
:1033800080702060206940F400702061206940F462
:1033900080702061206840F0200020603120C4F857
:1033A000FC03206940F02000206100BF00BF00BF87
:1033B000206840F020002060206840F48070206089
:1033C00040F20770C4F8FC03206940F0200020613F
:1033D00000BF00BF00BF206840F0200020602068D0
:1033E00040F480702060206940F400702061206902
:1033F00040F480702061206840F020002060C4F814
:10340000FCA3206940F02000206100BF00BF00BF86
:10341000206840F020002060206840F48070206028
:103420000620C4F8FC03206940F02000206100BFA2
:1034300000BF00BF206840F020002060206840F4FA
:1034400080702060206940F400702061206940F4A1
:1034500080702061206840F0200020603520C4F892
:10346000FC03206940F02000206100BF00BF00BFC6
:10347000206840F020002060206840F480702060C8
:1034800040F20470C4F8FC03206940F02000206181
:1034900000BF00BF00BF206840F02000206020680F
:1034A00040F480702060206940F400702061206941
:1034B00040F480702061206840F0200020603620B9
:1034C000C4F8FC03206940F02000206100BF00BF69
:1034D00000BF206840F020002060206840F4807029
:1034E000206041F60470C4F8FC03206940F020001D
:1034F000206100BF00BF00BF206840F020002060B6
:10350000206840F480702060206940F400702061E1
:10351000206940F480702061206840F02000206025
:103520003720C4F8FC03206940F02000206100BF70
:1035300000BF00BF206840F020002060206840F4F9
:10354000807020600420C4F8FC03206940F0200053
:10355000206100BF00BF00BF206840F02000206055
:10356000206840F480702060206940F40070206181
:10357000206940F480702061206840F020002060C5
:103580003820C4F8FC03206940F02000206100BF0F
:1035900000BF00BF206840F020002060206840F499
:1035A00080702060C4F8FC53206940F02000206146
:1035B00000BF00BF00BF206840F0200020602068EE
:1035C00040F480702060206940F400702061206920
:1035D00040F480702061206840F020002060392095
:1035E000C4F8FC03206940F02000206100BF00BF48
:1035F00000BF206840F020002060206840F4807008
:10360000206040F20670C4F8FC03206940F02000FE
:10361000206100BF00BF00BF206840F02000206094
:10362000206840F480702060206940F400702061C0
:10363000206940F480702061206840F02000206004
:103640003C20C4F8FC03206940F02000206100BF4A
:1036500000BF00BF206840F020002060206840F4D8
:103660008070206040F20170C4F8FC03206940F0D3
:103670002000206100BF00BF00BF206840F0200094
:103680002060206840F480702060206940F4007061
:103690002061206940F480702061206840F02000A3
:1036A00020603D20C4F8FC03206940F02000206128
:1036B00000BF00BF00BF206840F0200020602068ED
:1036C00040F4807020600F20C4F8FC03206940F0B3
:1036D0002000206100BF00BF00BF206840F0200034
:1036E0002060206840F480702060206940F4007001
:1036F0002061206940F480702061206840F0200043
:1037000020605020C4F8FC03206940F020002061B4
:1037100000BF00BF00BF206840F02000206020688C
:1037200040F480702060C4F8FC53206940F0200011
:10373000206100BF00BF00BF206840F02000206073
:10374000206840F480702060206940F4007020619F
:10375000206940F480702061206840F020002060E3
:103760005120C4F8FC03206940F02000206100BF14
:1037700000BF00BF206840F020002060206840F4B7
:1037800080702060EF20C4F8FC03206940F0200026
:10379000206100BF00BF00BF206840F02000206013
:1037A000206840F480702060206940F4007020613F
:1037B000206940F480702061206840F02000206083
:1037C0005220C4F8FC03206940F02000206100BFB3
:1037D00000BF00BF206840F020002060206840F457
:1037E00080702060C4F8FC53206940F02000206104
:1037F00000BF00BF00BF206840F0200020602068AC
:1038000040F480702060206940F4007020612069DD
:1038100040F480702061206840F020002060532038
:10382000C4F8FC03206940F02000206100BF00BF05
:1038300000BF206840F020002060206840F48070C5
:10384000206040F23F10C4F8FC03206940F02000E3
:10385000206100BF00BF00BF206840F02000206052
:10386000206840F480702060206940F4007020617E
:10387000206940F480702061206840F020002060C2
:103880006020C4F8FC03206940F02000206100BFE4
:1038900000BF00BF206840F020002060206840F496
:1038A000807020604FF41C50C4F8FC03206940F085
:1038B0002000206100BF00BF00BF206840F0200052
:1038C0002060206840F480702060206940F400701F
:1038D0002061206940F480702061206840F0200061
:1038E00020606120C4F8FC03206940F020002061C2
:1038F00000BF00BF00BF206840F0200020602068AB
:1039000040F4807020600120C4F8FC03206940F07E
:103910002000206100BF00BF00BF206840F02000F1
:103920002060206840F480702060206940F40070BE
:103930002061206940F480702061206840F0200000
:1039400020606A20C4F8FC03206940F02000206158
:1039500000BF00BF00BF206840F02000206020684A
:1039600040F480702060C4F8FC53206940F02000CF
:10397000206100BF00BF00BF206840F02000206031
:10398000206840F480702060206940F4007020615D
:10399000206940F480702061206840F020002060A1
:1039A0008020C4F8FC03206940F02000206100BFA3
:1039B00000BF00BF206840F020002060206840F475
:1039C00080702060C4F8FC53206940F02000206122
:1039D00000BF00BF00BF206840F0200020602068CA
:1039E00040F480702060206940F4007020612069FC
:1039F00040F480702061206840F020002060812029
:103A0000C4F8FC03206940F02000206100BF00BF23
:103A100000BF206840F020002060206840F48070E3
:103A20002060C4F8FC53206940F02000206100BFF2
:103A300000BF00BF206840F020002060206840F4F4
:103A400080702060206940F400702061206940F49B
:103A500080702061206840F0200020608220C4F83F
:103A6000FC03206940F02000206100BF00BF00BFC0
:103A7000206840F020002060206840F480702060C2
:103A8000C4F8FC53206940F02000206100BF00BF53
:103A900000BF206840F020002060206840F4807063
:103AA0002060206940F400702061206940F480703B
:103AB0002061206840F0200020608320C4F8FC03CF
:103AC000206940F02000206100BF00BF00BF2068D7
:103AD00040F020002060206840F480702060C4F82E
:103AE000FC53206940F02000206100BF00BF00BFF0
:103AF000206840F020002060206840F48070206042
:103B0000206940F400702061206940F480702061D9
:103B1000206840F0200020608420C4F8FC03206965
:103B200040F02000206100BF00BF00BF206840F0CF
:103B300020002060206840F480702060C4F8FC53AE
:103B4000206940F02000206100BF00BF00BF206856
:103B500040F020002060206840F4807020602069E0
:103B600040F400702061206940F48070206120687A
:103B700040F0200020608520C4F8FC03206940F05C
:103B80002000206100BF00BF00BF206840F020007F
:103B90002060206840F480702060C4F8FC532069E5
:103BA00040F02000206100BF00BF00BF206840F04F
:103BB00020002060206840F480702060206940F47C
:103BC00000702061206940F480702061206840F01E
:103BD000200020609020C4F8FC03206940F0200001
:103BE000206100BF00BF00BF206840F020002060BF
:103BF000206840F480702060C4F8FC73206940F0B5
:103C00002000206100BF00BF00BF206840F02000FE
:103C10002060206840F480702060206940F40070CB
:103C20002061206940F480702061206840F020000D
:103C300020609220C4F8FC03206940F0200020613D
:103C400000BF00BF00BF206840F020002060206857
:103C500040F480702060C4F8FC53206940F02000DC
:103C6000206100BF00BF00BF206840F0200020603E
:103C7000206840F480702060206940F4007020616A
:103C8000206940F480702061206840F020002060AE
:103C90009320C4F8FC03206940F02000206100BF9D
:103CA00000BF00BF206840F020002060206840F482
:103CB00080702060C4F8FC13206940F0200020616F
:103CC00000BF00BF00BF206840F0200020602068D7
:103CD00040F480702060206940F400702061206909
:103CE00040F480702061206840F020002060952022
:103CF000C4F8FC03206940F02000206100BF00BF31
:103D000000BF206840F020002060206840F48070F0
:103D100020604FF48870C4F8FC03206940F0200054
:103D2000206100BF00BF00BF206840F0200020607D
:103D3000206840F480702060206940F400702061A9
:103D4000206940F480702061206840F020002060ED
:103D50009720C4F8FC03206940F02000206100BFD8
:103D600000BF00BF206840F020002060206840F4C1
:103D700080702060C4F8FC53206940F0200020616E
:103D800000BF00BF00BF206840F020002060206816
:103D900040F480702060206940F400702061206948
:103DA00040F480702061206840F02000206098205E
:103DB000C4F8FC03206940F02000206100BF00BF70
:103DC00000BF206840F020002060206840F4807030
:103DD0002060C4F8FC53206940F02000206100BF3F
:103DE00000BF00BF206840F020002060206840F441
:103DF00080702060206940F400702061206940F4E8
:103E000080702061206840F020002060C4F8FC131E
:103E1000206940F02000206100BF00BF00BF206883
:103E200040F020002060206840F48070206041F263
:103E30001800C4F8FC03206940F02000206100BF96
:103E400000BF00BF206840F020002060206840F4E0
:103E500080702060206940F400702061206940F487
:103E600080702061206840F020002060C4F8FC23AE
:103E7000206940F02000206100BF00BF00BF206823
:103E800040F020002060206840F48070206040F204
:103E90007310C4F8FC03206940F02000206100BFCB
:103EA00000BF00BF206840F020002060206840F480
:103EB0008070206001B0BDE8F08F00007047000006
:103EC000FCF716BB4EF68850CEF20000016841F4B4
:103ED000700101604FF0006140F8801C70470000E5
:103EE00080B5816ACA070DD18A0716D44A071FD444
:103EF0000A0728D4CA0631D48A063AD44A0658D5C5
:103F000042E000BF0268D0F82CC0536823F40033AD
:103F100043EA0C0353608A07E8D50268D0F830C042
:103F2000536823F4803343EA0C0353604A07DFD518
:103F30000268D0F834C0536823F4802343EA0C03AA
:103F400053600A07D6D50268D0F838C0536823F406
:103F5000004343EA0C035360CA06CDD50268D0F88B
:103F60003CC0936823F4805343EA0C0393608A06B1
:103F7000C4D50268D0F840C0936823F4005343EAE4
:103F80000C0393604A0614D50268D0F844C0536805
:103F9000BCF5801F23F4801343EA0C03536008D15F
:103FA000D2F804C0D0F848E02CF4C00343EA0E0372
:103FB0005360090658BF80BD0168C06C4A6822F48E
:103FC00000221043486080BD70B5054605F1080425
:103FD0001ECC0068194341EA0403EE69046846F602
:103FE000F311CCF6FF712140194331430160416860
:103FF00048F2000C21F4405111434160AA69C4F217
:10400000000C60451CBF296A0A4381684FF2FF43D8
:10401000C1F2FF13194011438160C16AD5F824E051
:1040200021F00F0141EA0E01C16244F6FF31C4F2F2
:10403000000188424FF0100314DD44F60041C4F241
:104040000001884222D0604528D043F60001C4F226
:104050000101884238D141F28801C4F202010B68A3
:104060007EA22DE044F20041C4F2000188421DD03E
:1040700044F60001C4F20001884225D141F28801D2
:10408000C4F2020109680B0916E000BF41F2880181
:10409000C4F2020109688B090EE000BF41F28801F9
:1040A000C4F2020109688B0A06E000BF41F28801F0
:1040B000C4F2020109688B0845F62812C0F6000216
:1040C00003F0030152F82130604542F20040C0F293
:1040D000F40015D0B6F5004F24D1082B4FF00101A4
:1040E00000F2B380DFE803F0065E6CB164B1B1B1F9
:1040F0006A0000BFFCF7F4FD002856D15CE000BF69
:10410000082B4FF0010100F2A080DFE803F0059ECC
:10411000259E1D9E9E9E2300FCF7E2FDC0B1D5F8B2
:1041200024E019E0082B4FF0010100F28E80DFE857
:1041300003F00565738C6B8C8C8C7100FCF7D0FDE3
:1041400000285ED164E000BFFCF7F6FD0028E6D150
:1041500000217AE04FF4004045F61011C0F600014E
:1041600031F81E106A68B0FBF1F002EB42018842A0
:104170004FF0010169D31303984266D8010E000283
:1041800010EB520041F100010023FCF741F84FF61B
:104190000052A0F54071C0F20F0291424FD30121AD
:1041A00053E000BFFCF7B2FD30B1D5F824E007E0E2
:1041B000FCF7C2FD0028F8D1002146E04FF4004092
:1041C00045F61011C0F6000131F81E106A68B0FB08
:1041D000F1F0510801EB4000B0FBF2F04FF6EF7246
:1041E000A0F11001914207D84FF6F0710140C0F3E1
:1041F0004200084423E000BF012126E0FCF786FDD1
:1042000030B1D5F824E007E0FCF796FD0028F8D19E
:1042100000211AE04FF4004045F61011C0F60001ED
:1042200031F81E104FF6EF72B0FBF1F0696800EB49
:104230005100B0FBF1F0A0F11001914204D82968BF
:10424000C860002101E000BF01214FF00110A86605
:10425000002208462A676A6770BD00BF010000009F
:104260000400000002000000080000002DE9F041F9
:10427000044600681546C2690E461140891BB1FA12
:1042800081F14909A94240F0A080DDF81880B8F119
:10429000000F29D018F1010140F08080C169314040
:1042A000891BB1FA81F14909A94240F08E80C169A8
:1042B0003140891BB1FA81F14909A94240F085805A
:1042C000C1693140891BB1FA81F14909A9427CD108
:1042D000C1693140891BB1FA81F14909A942DDD098
:1042E0000020BDE8F08100BFFCF7FCF8206850E832
:1042F000000F216820F4D07041E80002BAB32068B2
:1043000050E8000F216820F4D07041E8000272B339
:10431000206850E8000F216820F4D07041E80002C6
:104320002AB3206850E8000F216820F4D07041E8DB
:104330000002002ADAD11AE0206850E8020F216852
:1043400020F0010041E80202DAB1206850E8020FD3
:10435000216820F0010041E8020292B1206850E893
:10436000020F216820F0010041E802024AB12068F2
:1043700050E8020F216820F0010041E80202002A03
:10438000DAD12020C4F8840004F1880020210160E3
:10439000002084F880000320BDE8F0811F4600BFA4
:1043A000FCF7A0F8C01B4045A0D820680168490769
:1043B00044BFC1695FEA01510AD4C0693040801B23
:1043C000B0FA80F04009A842EAD00020BDE8F081B0
:1043D0004FF40061016200BF206850E8000F2168BF
:1043E00020F4D07041E80002BAB3206850E8000F12
:1043F000216820F4D07041E8000272B3206850E8D0
:10440000000F216820F4D07041E800022AB3206830
:1044100050E8000F216820F4D07041E80002002A23
:10442000DAD11AE0206850E8020F216820F001007C
:1044300041E80202DAB1206850E8020F216820F05A
:10444000010041E8020292B1206850E8020F2168A1
:1044500020F0010041E802024AB1206850E8020F52
:10446000216820F0010041E80202002ADAD1202070
:10447000C4F88400C4F8880004F18C0086E70000CA
:10448000FEE7000080B582B0019040F21C00C2F24D
:10449000000001A901224FF0FF33FDF74DF801980C
:1044A00002B080BD94B0FCF731F800274FF40070E3
:1044B000CDE90B77CDE90977CDE90777FCF7B2F8BD
:1044C000402102200A91142106904FF48078CDE912
:1044D0000D000F90CDE91010CDE9120006A8CDF81F
:1044E0002480FCF769FC0F2001900320CDE902072E
:1044F00001A80221CDE90477FCF768FA41F24C00EB
:104500000A97C4F20200016840F2004A41F0040137
:1045100001600168C4F6000A01F0040101910199EB
:1045200001680AF5806541F0200101600168002200
:1045300001F020010191019901684FF6FF7641F0E9
:1045400001010160016801F0010101910199016817
:1045500041F00201016000684FF6FF7100F00200B7
:10456000019001982846FBF7B7FF4FF090404FF4B9
:1045700080710022FBF7B0FF50464FF448710022D3
:104580004FF44879FBF7A8FF069606AE01242846AB
:104590003146CDE907470997FBF7C8FE4FF0904039
:1045A0003146CDE90684CDE90877FBF7BFFE5046DA
:1045B0003146CDE90694CDE90877FBF7B7FE40F226
:1045C0001C0443F60000C2F20004C4F201004FF4E0
:1045D000E1310C2284E883002046C4E90377C4E972
:1045E0000527C4E90777C4E90977FCF7FBFE2046F5
:1045F0000021FCF7B1FE20460021FCF767FE2046B3
:10460000FCF748FEFDF720FB1F20FDF705F81F20F3
:10461000FDF732FC4FF6FF70FDF73AFC45F6481403
:10462000C0F6000400202146FDF738F91820214685
:10463000FDF734F915A13020FDF730F94820214667
:10464000FDF72CF960202146FDF728F94FF6FF70A1
:10465000FDF712FC1F20FDF71BFC78202146FDF71B
:104660001DF910A19020FDF719F9A8202146FDF7AA
:1046700015F912A1C020FDF711F9D8202146FDF748
:104680000DF914A000F03EF8FEE700BF2020202026
:1046900020204C4344205465737420202020202087
:1046A000000000002020202020202048414C204CE9
:1046B000494220202020202000000000202020202F
:1046C00020202020204038302020202020202020A2
:1046D000000000006D616368696E6520737461722B
:1046E00074200D0002E008C8121F08C1002AFAD188
:1046F00070477047002001E001C1121F002AFBD162
:104700007047000010B5044601E0FFF7BBFE14F847
:10471000010B04490028F8D1BDE810400A20FFF73A
:10472000B1BE0000000000200000000000000000FA
:104730000102030406070809000000000102030447
:104740000000000000000000000000000000000069
:104750000000000000000000000000000000000059
:104760000000000000000000000000000000000049
:1047700000008001800180018001800180018001B2
:104780008001800180018001800180010000000023
:104790008001800100000000000000000000000017
:1047A00000000000CC00CC00CC00CC00CC00CC0041
:1047B00000000000000000000000000000000000F9
:1047C00000000000000000000000000000000000E9
:1047D000000000000000000000000000600C600C01
:1047E000600C30063006FE1FFE1F30063807180327
:1047F000FE1FFE1F180318038C018C018C010000A2
:1048000000008000E003F80F9C0E8C1C8C188C00BC
:104810009800F801E007800E801C8C188C189C18FA
:10482000B80CF00FE00380008000000000000000E2
:104830000000000000000E181B0C110C11061106E0
:10484000110311039B018E01C038C06C60446044A9
:10485000304430441844186C0C380000000000004C
:104860000000E001F0033807180618063003F001D5
:10487000F000F8009C310E33061E061C061C063F95
:10488000FC73F021000000000000000000000000A8
:10489000000000000C000C000C000C000C000C00D0
:1048A0000000000000000000000000000000000008
:1048B00000000000000000000000000000000000F8
:1048C0000000000200038001C000C0006000600022
:1048D0003000300030003000300030003000300058
:1048E00060006000C000C000800100030002000002
:1048F000000020006000C000800180010003000370
:104900000006000600060006000600060006000677
:104910000003000380018001C0006000200000004F
:10492000000000000000000000000000C000C00007
:10493000D806F807E0013003380700000000000047
:104940000000000000000000000000000000000067
:104950000000000000000000000000008001800155
:10496000800180018001FC3FFC3F800180018001CB
:104970008001800100000000000000000000000035
:104980000000000000000000000000000000000027
:104990000000000000000000000000000000000017
:1049A0000000800180010001000180000000000083
:1049B00000000000000000000000000000000000F7
:1049C0000000000000000000E007E0070000000019
:1049D00000000000000000000000000000000000D7
:1049E00000000000000000000000000000000000C7
:1049F00000000000000000000000000000000000B7
:104A00000000C000C0000000000000000000000026
:104A10000000000C000C0006000600060003000366
:104A200000038003800180018001C000C000C0003D
:104A300060006000000000000000000000000000B6
:104A40000000E003F007380E180C0C180C180C18B6
:104A50000C180C180C180C180C180C18180C380E14
:104A6000F007E0030000000000000000000000006C
:104A7000000000018001C001F0019801880180015F
:104A8000800180018001800180018001800180011E
:104A90008001800100000000000000000000000014
:104AA0000000E003F80F180C0C180C180018001880
:104AB000000C000600038001C000600030001800F8
:104AC000FC1FFC1F000000000000000000000000B0
:104AD0000000E001F807180E0C0C0C0C000C00068E
:104AE000C003C007000C001800180C180C18180C94
:104AF000F807E003000000000000000000000000D4
:104B00000000000C000E000F000F800DC00C600CA8
:104B1000600C300C180C0C0CFC3FFC3F000C000C23
:104B2000000C000C0000000000000000000000006D
:104B30000000F80FF80F180018000C00EC03FC0739
:104B40001C0E001C0018001800180C181C0C180E65
:104B5000F807E00300000000000000000000000073
:104B60000000C007F00F381C181818000C00CC0308
:104B7000EC0F3C0E1C1C0C180C180C18181C380ED2
:104B8000F007E0030000000000000000000000004B
:104B90000000FC1FFC1F000C000600060003800341
:104BA0008001C001C000E0006000600070003000C3
:104BB0003000300000000000000000000000000095
:104BC0000000E003F007380E180C180C180C38061B
:104BD000F007F007180C0C180C180C180C18380CEF
:104BE000F80FE003000000000000000000000000DB
:104BF0000000E003F007380E1C0C0C180C180C1801
:104C00001C1C381EF81BE0190018000C000C1C0EB0
:104C1000F807F001000000000000000000000000A4
:104C20000000000000000000000000008001800182
:104C30000000000000000000000000000000000074
:104C40008001800100000000000000000000000062
:104C50000000000000000000000000008001800152
:104C60000000000000000000000000000000000044
:104C700080018001000100018000000000000000B0
:104C80000000000000000000000000000000000024
:104C90000010001C800FE003F8001800F800E0038B
:104CA000800F001C00100000000000000000000049
:104CB00000000000000000000000000000000000F4
:104CC000F81F000000000000F81F000000000000B6
:104CD00000000000000000000000000000000000D4
:104CE00000000000000000000000000000000000C4
:104CF00008003800F001C007001F0018001FC0079F
:104D0000F001380008000000000000000000000072
:104D10000000E003F80F180C0C180C180018000C19
:104D2000000600038001C000C000C00000000000B9
:104D3000C000C000000000000000000000000000F3
:104D400000000000E00718180420C229224A11447C
:104D500009440944094409221113E20C02400420C9
:104D60001818E0070000000000000000000000002C
:104D7000000080038003C006C006C006600C600C03
:104D8000301830183018F83FF83F1C700C600C6079
:104D900006C006C000000000000000000000000087
:104DA0000000FC03FC0F0C0C0C180C180C180C0C5D
:104DB000FC07FC0F0C180C300C300C300C300C18AD
:104DC000FC1FFC07000000000000000000000000C5
:104DD0000000C007F01F38381C300C700660060059
:104DE0000600060006000600060006600C701C3077
:104DF000F01FE007000000000000000000000000BD
:104E00000000FE03FE0F060E0618061806300630D8
:104E10000630063006300630063006180618060E34
:104E2000FE0FFE0300000000000000000000000074
:104E30000000FC3FFC3F0C000C000C000C000C00C0
:104E4000FC1FFC1F0C000C000C000C000C000C00E4
:104E5000FC3FFC3F000000000000000000000000DC
:104E60000000F83FF83F180018001800180018005C
:104E7000F81FF81F18001800180018001800180074
:104E800018001800000000000000000000000000F2
:104E90000000E00FF83F3C780E6006E007C003001A
:104EA000030003FE03FE03C007C006C00EC03CF0B3
:104EB000F83FE00F000000000000000000000000CC
:104EC00000000C300C300C300C300C300C300C303E
:104ED000FC3FFC3F0C300C300C300C300C300C30F4
:104EE0000C300C300000000000000000000000004A
:104EF000000080018001800180018001800180012B
:104F00008001800180018001800180018001800199
:104F1000800180010000000000000000000000008F
:104F20000000000600060006000600060006000657
:104F300000060006000600060006180618063807D8
:104F4000F003E0010000000000000000000000008D
:104F5000000006300618060C060606038601C60089
:104F600066007600DE008E0106030606060C0618B3
:104F70000630066000000000000000000000000095
:104F80000000180018001800180018001800180079
:104F90001800180018001800180018001800180051
:104FA000F81FF81F000000000000000000000000D3
:104FB00000000EE01EF01EF01EF036D836D836D8AF
:104FC00036D866CC66CC66CCC6C6C6C6C6C6C6C60D
:104FD00086C386C30000000000000000000000003F
:104FE00000000C301C303C303C306C306C30CC302D
:104FF000CC308C310C330C330C360C360C3C0C3C66
:105000000C380C3000000000000000000000000020
:105010000000E007F81F1C380E70066003C003C0D4
:1050200003C003C003C003C003C006600E701C3879
:10503000F81FE00700000000000000000000000072
:105040000000FC0FFC1F0C380C300C300C300C3006
:105050000C18FC1FFC070C000C000C000C000C00D2
:105060000C000C0000000000000000000000000028
:105070000000E007F81F1C380E70066003E003C054
:1050800003C003C003C003C007E006630E3F1C3C1F
:10509000F83FE0F700C00000000000000000000042
:1050A0000000FE0FFE1F06380630063006300638B8
:1050B000FE1FFE0706030606060C06180618063035
:1050C0000630066000000000000000000000000044
:1050D0000000E003F80F1C0C0C180C180C001C004E
:1050E000F803E00F001E0038063006300E301C1C9E
:1050F000F80FE007000000000000000000000000C2
:105100000000FE7FFE7F8001800180018001800120
:105110008001800180018001800180018001800187
:10512000800180010000000000000000000000007D
:1051300000000C300C300C300C300C300C300C30CB
:105140000C300C300C300C300C300C300C3018188B
:10515000F81FE00700000000000000000000000051
:10516000000003600630063006300C180C180C18CE
:10517000180C180C380E30063006700760036003F8
:10518000C001C0010000000000000000000000009D
:1051900000000360C361C361C36166336633663375
:1051A0006633663366336C1B6C1B6C1B2C1A3C1EFF
:1051B000380E380E00000000000000000000000063
:1051C00000000FE00C7018303018700C600EC00733
:1051D00080038003C003E006700C301C18180C30EC
:1051E0000E6007E00000000000000000000000006A
:1051F000000003C006600C301C383818300C600604
:10520000E007C003800180018001800180018001EE
:10521000800180010000000000000000000000008C
:105220000000FC7FFC7F006000300018000C0006CE
:1052300000038001C0006000300018000C00060070
:10524000FE7FFE7F00000000000000000000000064
:105250000000E003E00360006000600060006000A8
:10526000600060006000600060006000600060003E
:1052700060006000600060006000E003E003000088
:10528000000030003000600060006000C000C0001E
:10529000C000C00180018001800100030003000301
:1052A00000060006000000000000000000000000F2
:1052B0000000E003E0030003000300030003000319
:1052C00000030003000300030003000300030003C6
:1052D00000030003000300030003E003E0030000F9
:1052E00000000000C001C0016003600360033006DD
:1052F0003006180C180C0000000000000000000030
:10530000000000000000000000000000000000009D
:10531000000000000000000000000000000000008D
:10532000000000000000000000000000000000007D
:105330000000FFFFFFFF0000000000000000000071
:1053400000000C000C000C000C000C000C00000015
:10535000000000000000000000000000000000004D
:10536000000000000000000000000000000000003D
:10537000000000000000000000000000F003F8073B
:105380001C0C0C0C000FF00FF80C0C0C0C0C1C0F70
:10539000F80FF018000000000000000000000000FE
:1053A000000018001800180018001800D803F80FA3
:1053B000380C181818181818181818181818380C45
:1053C000F80FD803000000000000000000000000FB
:1053D000000000000000000000000000C003F00713
:1053E000300E180C1800180018001800180C300E99
:1053F000F007C003000000000000000000000000F3
:10540000000000180018001800180018C01BF01F3A
:10541000301C181818181818181818181818301CD4
:10542000F01FC01B00000000000000000000000092
:10543000000000000000000000000000C003F00FAA
:10544000300C1818F81FF81F180018003818301CF6
:10545000F00FC00700000000000000000000000086
:105460000000800FC00FC000C000C000F007F007B0
:10547000C000C000C000C000C000C000C000C0002C
:10548000C000C0000000000000000000000000009C
:10549000000000000000000000000000E00DF80F18
:1054A000180E0C0C0C0C0C0C0C0C0C0C0C0C180E20
:1054B000F80FE00D000C0C0C1C06F807F0010000C2
:1054C000000018001800180018001800D807F80F7E
:1054D000381C181818181818181818181818181828
:1054E000181818180000000000000000000000005C
:1054F0000000C000C000000000000000C000C000AC
:10550000C000C000C000C000C000C000C000C0009B
:10551000C000C0000000000000000000000000000B
:105520000000C000C000000000000000C000C0007B
:10553000C000C000C000C000C000C000C000C0006B
:10554000C000C000C000C000C000F800780000002B
:1055500000000C000C000C000C000C000C0C0C06E5
:105560000C038C01CC006C00FC009C018C030C0330
:105570000C060C0C00000000000000000000000001
:105580000000C000C000C000C000C000C000C000DB
:10559000C000C000C000C000C000C000C000C0000B
:1055A000C000C0000000000000000000000000007B
:1055B0000000000000000000000000007C3CFF7EB6
:1055C000C7E383C183C183C183C183C183C183C155
:1055D00083C183C100000000000000000000000043
:1055E0000000000000000000000000009807F80F15
:1055F000381C181818181818181818181818181807
:10560000181818180000000000000000000000003A
:10561000000000000000000000000000C003F00FC8
:10562000300C181818181818181818181818300CE2
:10563000F00FC003000000000000000000000000A8
:10564000000000000000000000000000D803F80F78
:10565000380C181818181818181818181818380CA2
:10566000F80FD803180018001800180018000000E0
:10567000000000000000000000000000C01BF01F40
:10568000301C181818181818181818181818301C62
:10569000F01FC01B001800180018001800180000A8
:1056A000000000000000000000000000B007F00350
:1056B000700030003000300030003000300030002A
:1056C000300030000000000000000000000000007A
:1056D000000000000000000000000000E003F003F4
:1056E000380E180C3800F003C007000C180C380EE8
:1056F000F007E003000000000000000000000000D0
:10570000000000008000C000C000C000F007F007EB
:10571000C000C000C000C000C000C000C000C00089
:10572000C00780070000000000000000000000002B
:105730000000000000000000000000001818181809
:105740001818181818181818181818181818381CB5
:10575000F01FE01900000000000000000000000041
:105760000000000000000000000000000C18180CF1
:10577000180C180C30063006300660036003600316
:10578000C001C00100000000000000000000000097
:10579000000000000000000000000000C141C14105
:1057A000C3616363636363633636363636361C1C07
:1057B0001C1C1C1C00000000000000000000000079
:1057C0000000000000000000000000001C38381C31
:1057D000300C600660036003600360036006300CF9
:1057E000381C1C3800000000000000000000000011
:1057F0000000000000000000000000001830301819
:1058000030187018600C600CE00CC006C0068003F5
:105810008003800380018001C001F000700000005F
:10582000000000000000000000000000FC1FFC1F42
:10583000000C000600038001C0006000300018006A
:10584000FC1FFC1F00000000000000000000000022
:10585000000000038001C000C000C000C000C00004
:10586000C00060006000300060004000C000C00068
:10587000C000C000C000C0008001000300000000A4
:105880000000800180018001800180018001800191
:105890008001800180018001800180018001800100
:1058A0008001800180018001800180018001000071
:1058B00000006000C000C001800180018001800103
:1058C0008001000300030006000300018001800145
:1058D0008001800180018001C000600000000000A4
:1058E00000000000000000000000000000000000B8
:1058F000F010F81F080F000000000000000000007A
:105900000000000000000000000000000000000097
:10591000010002000400060008000A000C0010004C
:105920002000400080000001000000000400000092
:10593000020000000800000001010103070100004F
:10594000080402040801010120202020202020203A
:1059500020202020202020202020202000000000C7
:10596000805900080000002018000000E4460008EC
:10597000985900081800002098040000F446000818
:10598000000000001000000001000000FFFF000008
:085990000024F40000000000F7
:04000005080001D915
:00000001FF
